{
  "transactions": [
    {
      "hash": "0xfc93acd84c10ade252e842930163f56d9217d8c8fdf9dd1049404f4b589d923d",
      "transactionType": "CALL",
      "contractName": null,
      "contractAddress": "0x0000000000FFe8B47B3e2130213B802212439497",
      "function": "safeCreate2(bytes32,bytes)",
      "arguments": [
        "0x0000000000000000000000000000000000000000000000000000000000000000",
        "0x608060405234801561001057600080fd5b50610230806100206000396000f3fe608060405234801561001057600080fd5b50600436106100365760003560e01c806375d0c0dc1461003b578063d66d6c1014610083575b600080fd5b604080518082018252601981527f53656172636865722045786563757465205265676973747279000000000000006020820152905161007a9190610161565b60405180910390f35b6100966100913660046101af565b610098565b005b6040516301ffc9a760e01b8152631851865560e21b600482015233906301ffc9a790602401602060405180830381865afa1580156100da573d6000803e3d6000fd5b505050506040513d601f19601f820116820180604052508101906100fe91906101d1565b1561011c57604051632c7ca6d760e01b815260040160405180910390fd5b60408051338152602081018490529081018290527fe69a6d7be864ccd6baebabfaeafe0836e1da025ab89cc9c42caeb13abbfbbd0f9060600160405180910390a15050565b600060208083528351808285015260005b8181101561018e57858101830151858201604001528201610172565b506000604082860101526040601f19601f8301168501019250505092915050565b600080604083850312156101c257600080fd5b50508035926020909101359150565b6000602082840312156101e357600080fd5b815180151581146101f357600080fd5b939250505056fea264697066735822122015a206d3bf0dabca5eea029927e1090e56436c6216799fd7758c0362fbc22f4764736f6c63430008140033"
      ],
      "transaction": {
        "type": "0x02",
        "from": "0x9444390c01dd5b7249e53fac31290f7dff53450d",
        "to": "0x0000000000ffe8b47b3e2130213b802212439497",
        "gas": "0x43855",
        "value": "0x0",
        "data": "0x64e03087000000000000000000000000000000000000000000000000000000000000000000000000000000000000000000000000000000000000000000000000000000400000000000000000000000000000000000000000000000000000000000000250608060405234801561001057600080fd5b50610230806100206000396000f3fe608060405234801561001057600080fd5b50600436106100365760003560e01c806375d0c0dc1461003b578063d66d6c1014610083575b600080fd5b604080518082018252601981527f53656172636865722045786563757465205265676973747279000000000000006020820152905161007a9190610161565b60405180910390f35b6100966100913660046101af565b610098565b005b6040516301ffc9a760e01b8152631851865560e21b600482015233906301ffc9a790602401602060405180830381865afa1580156100da573d6000803e3d6000fd5b505050506040513d601f19601f820116820180604052508101906100fe91906101d1565b1561011c57604051632c7ca6d760e01b815260040160405180910390fd5b60408051338152602081018490529081018290527fe69a6d7be864ccd6baebabfaeafe0836e1da025ab89cc9c42caeb13abbfbbd0f9060600160405180910390a15050565b600060208083528351808285015260005b8181101561018e57858101830151858201604001528201610172565b506000604082860101526040601f19601f8301168501019250505092915050565b600080604083850312156101c257600080fd5b50508035926020909101359150565b6000602082840312156101e357600080fd5b815180151581146101f357600080fd5b939250505056fea264697066735822122015a206d3bf0dabca5eea029927e1090e56436c6216799fd7758c0362fbc22f4764736f6c6343000814003300000000000000000000000000000000",
        "nonce": "0x78",
        "accessList": []
      },
      "additionalContracts": [
        {
          "transactionType": "CREATE2",
          "address": "0x23e887a11D9aFf21691704dEd79b332Fb8BB7e9D",
          "initCode": "0x608060405234801561001057600080fd5b50610230806100206000396000f3fe608060405234801561001057600080fd5b50600436106100365760003560e01c806375d0c0dc1461003b578063d66d6c1014610083575b600080fd5b604080518082018252601981527f53656172636865722045786563757465205265676973747279000000000000006020820152905161007a9190610161565b60405180910390f35b6100966100913660046101af565b610098565b005b6040516301ffc9a760e01b8152631851865560e21b600482015233906301ffc9a790602401602060405180830381865afa1580156100da573d6000803e3d6000fd5b505050506040513d601f19601f820116820180604052508101906100fe91906101d1565b1561011c57604051632c7ca6d760e01b815260040160405180910390fd5b60408051338152602081018490529081018290527fe69a6d7be864ccd6baebabfaeafe0836e1da025ab89cc9c42caeb13abbfbbd0f9060600160405180910390a15050565b600060208083528351808285015260005b8181101561018e57858101830151858201604001528201610172565b506000604082860101526040601f19601f8301168501019250505092915050565b600080604083850312156101c257600080fd5b50508035926020909101359150565b6000602082840312156101e357600080fd5b815180151581146101f357600080fd5b939250505056fea264697066735822122015a206d3bf0dabca5eea029927e1090e56436c6216799fd7758c0362fbc22f4764736f6c63430008140033"
        }
      ],
      "isFixedGasLimit": false
    }
  ],
  "receipts": [
    {
      "transactionHash": "0xfc93acd84c10ade252e842930163f56d9217d8c8fdf9dd1049404f4b589d923d",
      "transactionIndex": "0xc",
      "blockHash": "0xcee3b21c406680e8b5e6cadff195936d6e3a856b127ebfe1c4146030fabf5634",
      "blockNumber": "0x5b4231",
      "from": "0x9444390c01Dd5b7249E53FAc31290F7dFF53450D",
      "to": "0x0000000000FFe8B47B3e2130213B802212439497",
      "cumulativeGasUsed": "0x81283",
      "gasUsed": "0x30e4b",
      "contractAddress": null,
      "logs": [],
      "status": "0x1",
      "logsBloom": "0x00000000000000000000000000000000000000000000000000000000000000000000000000000000000000000000000000000000000000000000000000000000000000000000000000000000000000000000000000000000000000000000000000000000000000000000000000000000000000000000000000000000000000000000000000000000000000000000000000000000000000000000000000000000000000000000000000000000000000000000000000000000000000000000000000000000000000000000000000000000000000000000000000000000000000000000000000000000000000000000000000000000000000000000000000000000",
      "type": "0x2",
      "effectiveGasPrice": "0x1667eefdd"
    }
  ],
  "libraries": [],
  "pending": [],
  "returns": {},
  "timestamp": 1716714988,
  "chain": 11155111,
  "commit": "f5db4c8"
}